{
  "contractName": "Escrow",
  "abi": [
    {
      "inputs": [],
      "stateMutability": "nonpayable",
      "type": "constructor"
    },
    {
      "anonymous": false,
      "inputs": [
        {
          "indexed": false,
          "internalType": "uint256",
          "name": "transactionId",
          "type": "uint256"
        },
        {
          "indexed": true,
          "internalType": "address",
          "name": "partyA",
          "type": "address"
        },
        {
          "indexed": true,
          "internalType": "address",
          "name": "partyB",
          "type": "address"
        }
      ],
      "name": "TransactionCreated",
      "type": "event"
    },
    {
      "inputs": [],
      "name": "owner",
      "outputs": [
        {
          "internalType": "address",
          "name": "",
          "type": "address"
        }
      ],
      "stateMutability": "view",
      "type": "function"
    },
    {
      "inputs": [],
      "name": "transactionCounter",
      "outputs": [
        {
          "internalType": "uint256",
          "name": "",
          "type": "uint256"
        }
      ],
      "stateMutability": "view",
      "type": "function"
    },
    {
      "inputs": [
        {
          "internalType": "uint256",
          "name": "",
          "type": "uint256"
        }
      ],
      "name": "transactions",
      "outputs": [
        {
          "internalType": "uint256",
          "name": "amount",
          "type": "uint256"
        },
        {
          "internalType": "address",
          "name": "partyA",
          "type": "address"
        },
        {
          "internalType": "address",
          "name": "partyB",
          "type": "address"
        },
        {
          "internalType": "enum Escrow.State",
          "name": "currState",
          "type": "uint8"
        },
        {
          "internalType": "uint256",
          "name": "transactionId",
          "type": "uint256"
        }
      ],
      "stateMutability": "view",
      "type": "function"
    },
    {
      "inputs": [
        {
          "internalType": "address",
          "name": "_partyA",
          "type": "address"
        },
        {
          "internalType": "address",
          "name": "_partyB",
          "type": "address"
        }
      ],
      "name": "createTransaction",
      "outputs": [
        {
          "internalType": "uint256",
          "name": "",
          "type": "uint256"
        }
      ],
      "stateMutability": "nonpayable",
      "type": "function"
    },
    {
      "inputs": [
        {
          "internalType": "uint256",
          "name": "_transactionId",
          "type": "uint256"
        }
      ],
      "name": "getTransaction",
      "outputs": [
        {
          "components": [
            {
              "internalType": "uint256",
              "name": "amount",
              "type": "uint256"
            },
            {
              "internalType": "address",
              "name": "partyA",
              "type": "address"
            },
            {
              "internalType": "address",
              "name": "partyB",
              "type": "address"
            },
            {
              "internalType": "enum Escrow.State",
              "name": "currState",
              "type": "uint8"
            },
            {
              "internalType": "uint256",
              "name": "transactionId",
              "type": "uint256"
            }
          ],
          "internalType": "struct Escrow.EscrowTransaction",
          "name": "",
          "type": "tuple"
        }
      ],
      "stateMutability": "view",
      "type": "function"
    },
    {
      "inputs": [
        {
          "internalType": "uint256",
          "name": "_transactionId",
          "type": "uint256"
        }
      ],
      "name": "deposit",
      "outputs": [],
      "stateMutability": "payable",
      "type": "function"
    },
    {
      "inputs": [
        {
          "internalType": "uint256",
          "name": "_transactionId",
          "type": "uint256"
        }
      ],
      "name": "confirmCompletion",
      "outputs": [],
      "stateMutability": "nonpayable",
      "type": "function"
    },
    {
      "inputs": [
        {
          "internalType": "uint256",
          "name": "_transactionId",
          "type": "uint256"
        }
      ],
      "name": "raiseDispute",
      "outputs": [],
      "stateMutability": "nonpayable",
      "type": "function"
    },
    {
      "inputs": [
        {
          "internalType": "uint256",
          "name": "_transactionId",
          "type": "uint256"
        },
        {
          "internalType": "bool",
          "name": "releaseFundsToPartyB",
          "type": "bool"
        }
      ],
      "name": "resolveDispute",
      "outputs": [],
      "stateMutability": "nonpayable",
      "type": "function"
    },
    {
      "inputs": [
        {
          "internalType": "uint256",
          "name": "_transactionId",
          "type": "uint256"
        }
      ],
      "name": "cancelOrder",
      "outputs": [],
      "stateMutability": "nonpayable",
      "type": "function"
    }
  ],
  "bytecode": "0x6080604052348015600e575f5ffd5b50335f5f6101000a81548173ffffffffffffffffffffffffffffffffffffffff021916908373ffffffffffffffffffffffffffffffffffffffff1602179055505f60018190555061185f806100625f395ff3fe608060405260043610610090575f3560e01c80638da5cb5b116100585780638da5cb5b1461018657806394aeb613146101b05780639ace38c2146101d8578063a5c1674e14610218578063b6b55f251461024057610090565b806314e887e81461009457806333ea3dc8146100be57806334b25ee2146100fa578063514fcac714610122578063662a2c251461014a575b5f5ffd5b34801561009f575f5ffd5b506100a861025c565b6040516100b59190610fab565b60405180910390f35b3480156100c9575f5ffd5b506100e460048036038101906100df9190610ff2565b610262565b6040516100f19190611144565b60405180910390f35b348015610105575f5ffd5b50610120600480360381019061011b9190611192565b610385565b005b34801561012d575f5ffd5b5061014860048036038101906101439190610ff2565b6105de565b005b348015610155575f5ffd5b50610170600480360381019061016b91906111fa565b6107a6565b60405161017d9190610fab565b60405180910390f35b348015610191575f5ffd5b5061019a6109e8565b6040516101a79190611247565b60405180910390f35b3480156101bb575f5ffd5b506101d660048036038101906101d19190610ff2565b610a0c565b005b3480156101e3575f5ffd5b506101fe60048036038101906101f99190610ff2565b610bd6565b60405161020f95949392919061126f565b60405180910390f35b348015610223575f5ffd5b5061023e60048036038101906102399190610ff2565b610c53565b005b61025a60048036038101906102559190610ff2565b610db3565b005b60015481565b61026a610f2b565b60025f8381526020019081526020015f206040518060a00160405290815f8201548152602001600182015f9054906101000a900473ffffffffffffffffffffffffffffffffffffffff1673ffffffffffffffffffffffffffffffffffffffff1673ffffffffffffffffffffffffffffffffffffffff168152602001600282015f9054906101000a900473ffffffffffffffffffffffffffffffffffffffff1673ffffffffffffffffffffffffffffffffffffffff1673ffffffffffffffffffffffffffffffffffffffff1681526020016002820160149054906101000a900460ff16600581111561035e5761035d61106b565b5b60058111156103705761036f61106b565b5b81526020016003820154815250509050919050565b5f5f9054906101000a900473ffffffffffffffffffffffffffffffffffffffff1673ffffffffffffffffffffffffffffffffffffffff163373ffffffffffffffffffffffffffffffffffffffff1614610413576040517f08c379a000000000000000000000000000000000000000000000000000000000815260040161040a90611340565b60405180910390fd5b5f60025f8481526020019081526020015f2090506003600581111561043b5761043a61106b565b5b8160020160149054906101000a900460ff16600581111561045f5761045e61106b565b5b1461049f576040517f08c379a0000000000000000000000000000000000000000000000000000000008152600401610496906113a8565b60405180910390fd5b811561054157806002015f9054906101000a900473ffffffffffffffffffffffffffffffffffffffff1673ffffffffffffffffffffffffffffffffffffffff166108fc825f015490811502906040515f60405180830381858888f1935050505015801561050e573d5f5f3e3d5ffd5b5060028160020160146101000a81548160ff021916908360058111156105375761053661106b565b5b02179055506105d9565b806001015f9054906101000a900473ffffffffffffffffffffffffffffffffffffffff1673ffffffffffffffffffffffffffffffffffffffff166108fc825f015490811502906040515f60405180830381858888f193505050501580156105aa573d5f5f3e3d5ffd5b5060058160020160146101000a81548160ff021916908360058111156105d3576105d261106b565b5b02179055505b505050565b8060025f8281526020019081526020015f206001015f9054906101000a900473ffffffffffffffffffffffffffffffffffffffff1673ffffffffffffffffffffffffffffffffffffffff163373ffffffffffffffffffffffffffffffffffffffff1614806106aa575060025f8281526020019081526020015f206002015f9054906101000a900473ffffffffffffffffffffffffffffffffffffffff1673ffffffffffffffffffffffffffffffffffffffff163373ffffffffffffffffffffffffffffffffffffffff16145b6106e9576040517f08c379a00000000000000000000000000000000000000000000000000000000081526004016106e090611436565b60405180910390fd5b5f60025f8481526020019081526020015f2090505f60058111156107105761070f61106b565b5b8160020160149054906101000a900460ff1660058111156107345761073361106b565b5b14610774576040517f08c379a000000000000000000000000000000000000000000000000000000000815260040161076b906114c4565b60405180910390fd5b60048160020160146101000a81548160ff0219169083600581111561079c5761079b61106b565b5b0217905550505050565b5f8273ffffffffffffffffffffffffffffffffffffffff168273ffffffffffffffffffffffffffffffffffffffff1603610815576040517f08c379a000000000000000000000000000000000000000000000000000000000815260040161080c90611552565b60405180910390fd5b5f60015490506040518060a001604052805f81526020018573ffffffffffffffffffffffffffffffffffffffff1681526020018473ffffffffffffffffffffffffffffffffffffffff1681526020015f60058111156108775761087661106b565b5b81526020018281525060025f8381526020019081526020015f205f820151815f01556020820151816001015f6101000a81548173ffffffffffffffffffffffffffffffffffffffff021916908373ffffffffffffffffffffffffffffffffffffffff1602179055506040820151816002015f6101000a81548173ffffffffffffffffffffffffffffffffffffffff021916908373ffffffffffffffffffffffffffffffffffffffff16021790555060608201518160020160146101000a81548160ff021916908360058111156109505761094f61106b565b5b0217905550608082015181600301559050508273ffffffffffffffffffffffffffffffffffffffff168473ffffffffffffffffffffffffffffffffffffffff167fc7d8edc3ff9466edccc362811619db5cbfe02b3e0fbfc4aa99349d7f107f7802836040516109bf9190610fab565b60405180910390a360015f8154809291906109d99061159d565b91905055508091505092915050565b5f5f9054906101000a900473ffffffffffffffffffffffffffffffffffffffff1681565b8060025f8281526020019081526020015f206001015f9054906101000a900473ffffffffffffffffffffffffffffffffffffffff1673ffffffffffffffffffffffffffffffffffffffff163373ffffffffffffffffffffffffffffffffffffffff1614610aae576040517f08c379a0000000000000000000000000000000000000000000000000000000008152600401610aa590611654565b60405180910390fd5b5f60025f8481526020019081526020015f20905060016005811115610ad657610ad561106b565b5b8160020160149054906101000a900460ff166005811115610afa57610af961106b565b5b14610b3a576040517f08c379a0000000000000000000000000000000000000000000000000000000008152600401610b31906116e2565b60405180910390fd5b806002015f9054906101000a900473ffffffffffffffffffffffffffffffffffffffff1673ffffffffffffffffffffffffffffffffffffffff166108fc825f015490811502906040515f60405180830381858888f19350505050158015610ba3573d5f5f3e3d5ffd5b5060028160020160146101000a81548160ff02191690836005811115610bcc57610bcb61106b565b5b0217905550505050565b6002602052805f5260405f205f91509050805f015490806001015f9054906101000a900473ffffffffffffffffffffffffffffffffffffffff1690806002015f9054906101000a900473ffffffffffffffffffffffffffffffffffffffff16908060020160149054906101000a900460ff16908060030154905085565b8060025f8281526020019081526020015f206001015f9054906101000a900473ffffffffffffffffffffffffffffffffffffffff1673ffffffffffffffffffffffffffffffffffffffff163373ffffffffffffffffffffffffffffffffffffffff1614610cf5576040517f08c379a0000000000000000000000000000000000000000000000000000000008152600401610cec90611654565b60405180910390fd5b5f60025f8481526020019081526020015f20905060016005811115610d1d57610d1c61106b565b5b8160020160149054906101000a900460ff166005811115610d4157610d4061106b565b5b14610d81576040517f08c379a0000000000000000000000000000000000000000000000000000000008152600401610d7890611770565b60405180910390fd5b60038160020160146101000a81548160ff02191690836005811115610da957610da861106b565b5b0217905550505050565b8060025f8281526020019081526020015f206001015f9054906101000a900473ffffffffffffffffffffffffffffffffffffffff1673ffffffffffffffffffffffffffffffffffffffff163373ffffffffffffffffffffffffffffffffffffffff1614610e55576040517f08c379a0000000000000000000000000000000000000000000000000000000008152600401610e4c90611654565b60405180910390fd5b5f60025f8481526020019081526020015f2090505f6005811115610e7c57610e7b61106b565b5b8160020160149054906101000a900460ff166005811115610ea057610e9f61106b565b5b14610ee0576040517f08c379a0000000000000000000000000000000000000000000000000000000008152600401610ed7906117d8565b60405180910390fd5b34815f015f828254610ef291906117f6565b9250508190555060018160020160146101000a81548160ff02191690836005811115610f2157610f2061106b565b5b0217905550505050565b6040518060a001604052805f81526020015f73ffffffffffffffffffffffffffffffffffffffff1681526020015f73ffffffffffffffffffffffffffffffffffffffff1681526020015f6005811115610f8757610f8661106b565b5b81526020015f81525090565b5f819050919050565b610fa581610f93565b82525050565b5f602082019050610fbe5f830184610f9c565b92915050565b5f5ffd5b610fd181610f93565b8114610fdb575f5ffd5b50565b5f81359050610fec81610fc8565b92915050565b5f6020828403121561100757611006610fc4565b5b5f61101484828501610fde565b91505092915050565b61102681610f93565b82525050565b5f73ffffffffffffffffffffffffffffffffffffffff82169050919050565b5f6110558261102c565b9050919050565b6110658161104b565b82525050565b7f4e487b71000000000000000000000000000000000000000000000000000000005f52602160045260245ffd5b600681106110a9576110a861106b565b5b50565b5f8190506110b982611098565b919050565b5f6110c8826110ac565b9050919050565b6110d8816110be565b82525050565b60a082015f8201516110f25f85018261101d565b506020820151611105602085018261105c565b506040820151611118604085018261105c565b50606082015161112b60608501826110cf565b50608082015161113e608085018261101d565b50505050565b5f60a0820190506111575f8301846110de565b92915050565b5f8115159050919050565b6111718161115d565b811461117b575f5ffd5b50565b5f8135905061118c81611168565b92915050565b5f5f604083850312156111a8576111a7610fc4565b5b5f6111b585828601610fde565b92505060206111c68582860161117e565b9150509250929050565b6111d98161104b565b81146111e3575f5ffd5b50565b5f813590506111f4816111d0565b92915050565b5f5f604083850312156112105761120f610fc4565b5b5f61121d858286016111e6565b925050602061122e858286016111e6565b9150509250929050565b6112418161104b565b82525050565b5f60208201905061125a5f830184611238565b92915050565b611269816110be565b82525050565b5f60a0820190506112825f830188610f9c565b61128f6020830187611238565b61129c6040830186611238565b6112a96060830185611260565b6112b66080830184610f9c565b9695505050505050565b5f82825260208201905092915050565b7f4f6e6c7920746865206f776e65722063616e2063616c6c20746869732066756e5f8201527f6374696f6e2e0000000000000000000000000000000000000000000000000000602082015250565b5f61132a6026836112c0565b9150611335826112d0565b604082019050919050565b5f6020820190508181035f8301526113578161131e565b9050919050565b7f4e6f206469737075746520746f207265736f6c76652e000000000000000000005f82015250565b5f6113926016836112c0565b915061139d8261135e565b602082019050919050565b5f6020820190508181035f8301526113bf81611386565b9050919050565b7f4f6e6c7920746865207061727469657320696e766f6c7665642063616e2063615f8201527f6c6c20746869732066756e6374696f6e2e000000000000000000000000000000602082015250565b5f6114206031836112c0565b915061142b826113c6565b604082019050919050565b5f6020820190508181035f83015261144d81611414565b9050919050565b7f4f726465722063616e6e6f742062652063616e63656c6c6564206174207468695f8201527f732073746167652e000000000000000000000000000000000000000000000000602082015250565b5f6114ae6028836112c0565b91506114b982611454565b604082019050919050565b5f6020820190508181035f8301526114db816114a2565b9050919050565b7f43616e6e6f74206372656174652061207472616e73616374696f6e20776974685f8201527f20796f757273656c662e00000000000000000000000000000000000000000000602082015250565b5f61153c602a836112c0565b9150611547826114e2565b604082019050919050565b5f6020820190508181035f83015261156981611530565b9050919050565b7f4e487b71000000000000000000000000000000000000000000000000000000005f52601160045260245ffd5b5f6115a782610f93565b91507fffffffffffffffffffffffffffffffffffffffffffffffffffffffffffffffff82036115d9576115d8611570565b5b600182019050919050565b7f4f6e6c7920506172747920412063616e2063616c6c20746869732066756e63745f8201527f696f6e2e00000000000000000000000000000000000000000000000000000000602082015250565b5f61163e6024836112c0565b9150611649826115e4565b604082019050919050565b5f6020820190508181035f83015261166b81611632565b9050919050565b7f43616e6e6f7420636f6e6669726d20636f6d706c6574696f6e206174207468695f8201527f732073746167652e000000000000000000000000000000000000000000000000602082015250565b5f6116cc6028836112c0565b91506116d782611672565b604082019050919050565b5f6020820190508181035f8301526116f9816116c0565b9050919050565b7f43616e6e6f7420726169736520612064697370757465206174207468697320735f8201527f746167652e000000000000000000000000000000000000000000000000000000602082015250565b5f61175a6025836112c0565b915061176582611700565b604082019050919050565b5f6020820190508181035f8301526117878161174e565b9050919050565b7f5061796d656e7420616c7265616479206d6164652e00000000000000000000005f82015250565b5f6117c26015836112c0565b91506117cd8261178e565b602082019050919050565b5f6020820190508181035f8301526117ef816117b6565b9050919050565b5f61180082610f93565b915061180b83610f93565b925082820190508082111561182357611822611570565b5b9291505056fea2646970667358221220d9b20443e8b7cc943cfe8cdacd59275053391e4d7e3e024d710528e214ef709f64736f6c634300081c0033",
  "immutableReferences": {},
  "source": "// SPDX-License-Identifier: SEE LICENSE IN LICENSE\npragma solidity 0.8.28;\n\ncontract Escrow {\n    struct EscrowTransaction {\n        uint256 amount;\n        address partyA;\n        address partyB;\n        State currState;\n        uint256 transactionId;\n    }\n\n    address public owner;\n    uint256 public transactionCounter;\n    mapping(uint256 => EscrowTransaction) public transactions;\n\n    enum State {AWAITING_PAYMENT, AWAITING_DELIVERY, COMPLETE, DISPUTED, CANCELED, REFUNDED}\n\n    event TransactionCreated(uint256 transactionId, address indexed partyA, address indexed partyB);\n\n    constructor() {\n        owner = msg.sender;\n        transactionCounter = 0;\n    }\n\n    modifier onlyParty(uint256 _transactionId) {\n        require(msg.sender == transactions[_transactionId].partyA || msg.sender == transactions[_transactionId].partyB, \"Only the parties involved can call this function.\");\n        _;\n    }\n\n    modifier onlyPartyA(uint256 _transactionId) {\n        require(msg.sender == transactions[_transactionId].partyA, \"Only Party A can call this function.\");\n        _;\n    }\n\n    modifier onlyOwner() {\n        require(msg.sender == owner, \"Only the owner can call this function.\");\n        _;\n    }\n\n    function createTransaction(address _partyA, address _partyB) external returns (uint256) {\n        require(_partyB != _partyA, \"Cannot create a transaction with yourself.\");\n        uint256 transactionId = transactionCounter;\n        transactions[transactionId] = EscrowTransaction({\n            amount: 0,\n            partyA: _partyA,\n            partyB: _partyB,\n            currState: State.AWAITING_PAYMENT,\n            transactionId: transactionId\n        });\n        emit TransactionCreated(transactionId, _partyA, _partyB);\n        transactionCounter++;\n        return transactionId;\n    }\n\n    function getTransaction(uint256 _transactionId) external view returns(EscrowTransaction memory) {\n        return transactions[_transactionId];\n    }\n\n    function deposit(uint256 _transactionId) external payable onlyPartyA(_transactionId) {\n        EscrowTransaction storage transaction = transactions[_transactionId];\n        require(transaction.currState == State.AWAITING_PAYMENT, \"Payment already made.\");\n        transaction.amount += msg.value;\n        transaction.currState = State.AWAITING_DELIVERY;\n    }\n\n    function confirmCompletion(uint256 _transactionId) external onlyPartyA(_transactionId) {\n        EscrowTransaction storage transaction = transactions[_transactionId];\n        require(transaction.currState == State.AWAITING_DELIVERY, \"Cannot confirm completion at this stage.\");\n        payable(transaction.partyB).transfer(transaction.amount);\n        transaction.currState = State.COMPLETE;\n    }\n\n    function raiseDispute(uint256 _transactionId) external onlyPartyA(_transactionId) {\n        EscrowTransaction storage transaction = transactions[_transactionId];\n        require(transaction.currState == State.AWAITING_DELIVERY, \"Cannot raise a dispute at this stage.\");\n        transaction.currState = State.DISPUTED;\n    }\n\n    function resolveDispute(uint256 _transactionId, bool releaseFundsToPartyB) external onlyOwner {\n        EscrowTransaction storage transaction = transactions[_transactionId];\n        require(transaction.currState == State.DISPUTED, \"No dispute to resolve.\");\n        if (releaseFundsToPartyB) {\n            payable(transaction.partyB).transfer(transaction.amount);\n            transaction.currState = State.COMPLETE;\n        } else {\n            payable(transaction.partyA).transfer(transaction.amount);\n            transaction.currState = State.REFUNDED;\n        }\n    }\n\n    function cancelOrder(uint256 _transactionId) external onlyParty(_transactionId) {\n        EscrowTransaction storage transaction = transactions[_transactionId];\n        require(transaction.currState == State.AWAITING_PAYMENT, \"Order cannot be cancelled at this stage.\");\n        transaction.currState = State.CANCELED;\n    }\n}\n",
  "sourcePath": "/Users/wille/DegreeProject/TerraLink/DegreeProject/contracts/contracts/Escrow.sol",
  "compiler": {
    "name": "solc",
    "version": "0.8.28+commit.7893614a.Emscripten.clang"
  },
  "schemaVersion": "3.4.16",
  "updatedAt": "2024-12-06T14:09:17.196Z",
  "devdoc": {
    "kind": "dev",
    "methods": {},
    "version": 1
  },
  "userdoc": {
    "kind": "user",
    "methods": {},
    "version": 1
  }
}